:100000000C9487030C94BF030C94BF030C94BF03A0
:100010000C94BF030C94BF030C94BF030C94BF0358
:100020000C94BF030C94BF030C9487260C945B279D
:100030000C9458210C94BF030C94BF030C94BF0381
:100040000C94BF030C94BF030C94BF030C94BF0328
:100050000C94BF030C94DF210C94BF030C94BF03DA
:100060000C94BF030C94BF030C94BF030C94BF0308
:100070000C94BF030C94BF030C94BF030C94BF03F8
:100080000C94BF030C94BF030C94BF030C94BF03E8
:100090000C94BF030C94BF030C94BF030C94BF03D8
:1000A0000C94BF030C94BF030C94BF0329003A00C7
:1000B0003B003C003D003E003F004000410042004C
:1000C0004300440045004600490035001E001F0063
:1000D0002000210022002300240025002600270004
:1000E0002D002E002A004C002B0014001A000800DE
:1000F000150017001C0018000C00120013002F0040
:10010000300031004B0039000400160007000900E0
:100110000A000B000D000E000F00330034004700F2
:1001200028004E00E1001D001B000600190005001C
:1001300011001000360037003800E50000005200C2
:100140004D00E000E300E200000000002C00000091
:100150000000E6000151E4005000000051004F0093
:100160000100AA00A900AE00AD00BC00BB00010068
:100170000100010001000100010001000100010077
:100180000100010001000100010001000100010067
:100190000100010001000100005C01000100C35CDE
:1001A000C45CC65CC75CC85CC95CCA5CCB5C010053
:1001B0000100010001000100010001000100010037
:1001C0000100010001000100010001000100010027
:1001D0000100010001000100010001000100010017
:1001E000BE5CC05CBF5CC15C01000100010001009D
:1001F00000000100010001000100010000000000FA
:10020000010000000000EF000100F000010000000C
:1002100001000100010001000100010001000100D6
:1002200001000100010001000100010001000100C6
:1002300001000100010001000100010001000100B6
:10024000010001000100010001000100005C01004B
:100250000100C35CC45CC65CC75CC85CC95CCA5CAA
:10026000CB5C010001000100010001000100010060
:100270000100010001000100010001000100010076
:100280000100010001000100010001000100010066
:1002900001000100BE5CC05CBF5CC15C01000100EC
:1002A0000100010000000100010001000100010047
:1002B000000000000100000000000100010001003A
:1002C0000100000001000100010001000100010027
:1002D0000100010001000100010001000100010016
:1002E0000100010001000100010001000100010006
:1002F00001000100010001000100010001000100F6
:10030000005C01000100C35CC45CC65CC75CC85CE7
:10031000C95CCA5CCB5C0100010001000100010066
:1003200001000100010001000100010001000100C5
:1003300001000100010001000100010001000100B5
:100340000100010001000100BE5CC05CBF5CC15C3B
:100350000100010001000100000001000100010096
:100360000100010000000000010000000000010089
:100370000100010001000000010001001E0F050046
:10038000047F3F1F643214643214783C1E1E140A2A
:10039000052223252628292A2C2D2F3032333536C5
:1003A000383A3B3D3E4042434547494A4C4E505106
:1003B000535557595A5C5E6062646668696B6D6F2D
:1003C00071737577797B7D7F81838587898A8C8E30
:1003D00090929496989A9C9E9FA1A3A5A7A8AAAC38
:1003E000AEAFB1B3B4B6B8B9BBBCBEBFC1C2C3C572
:1003F000C6C7C9CACBCCCDCED0D1D2D2D3D4D5D614
:10040000D7D7D8D9D9DADADBDBDBDCDCDCDCDCDD46
:10041000DDDDDDDCDCDCDCDCDBDBDBDADAD9D9D82A
:10042000D7D7D6D5D4D3D2D2D1D0CECDCCCBCAC9C2
:10043000C7C6C5C3C2C1BFBEBCBBB9B8B6B4B3B1F1
:10044000AFAEACAAA8A7A5A3A19F9E9C9A9896948C
:1004500092908E8C8A89878583817F7D7B79777561
:1004600073716F6D6B6968666462605E5C5A595740
:10047000555351504E4C4A4947454342403E3D3BFF
:100480003A3836353332302F2D2C2A292826252389
:1004900022FFAA7F55400001010101010101010174
:1004A0000202020202020202020303030303030325
:1004B00003040404040404040505050505060606F2
:1004C0000606070707070708080808090909090AAF
:1004D0000A0A0B0B0B0C0C0C0D0D0D0E0E0E0F0F54
:1004E0000F101011111112121313141415151616E2
:1004F0001717181819191A1A1B1B1C1D1D1E1E1F51
:100500002020212222232424252626272829292A9F
:100510002B2C2D2D2E2F30313232333435363738C7
:10052000393A3B3C3D3E3F404142434445464748C3
:10053000494A4C4D4E4F50515354555658595A5B99
:100540005D5E5F616264656668696B6C6D6F707239
:10055000737577787A7B7D7E8082838587888A8CA5
:100560008E8F91939596989A9C9EA0A2A3A5A7A9D9
:10057000ABADAFB1B3B5B7BABCBEC0C2C4C6C9CBD0
:10058000CDCFD1D4D6D8DBDDDFE2E4E7E9EBEEF086
:10059000F3F5F8FAFDFF1C034B004200440037005E
:1005A00035005F0048004F005400530057004100E1
:1005B0005000000010034B00420044004600410080
:1005C0004E00530000000403090409023B0002012D
:1005D00000A0FA0904000001030101000921110132
:1005E0000001224000070581030800010904010001
:1005F000010300000009211101000122B6000705D6
:1006000082032000011201000200000008424B6238
:100610006003000102000105010902A10185020930
:1006200001A1000509190129081500250195087582
:100630000181020501093009311581257F95027577
:1006400008810609381581257F9501750881060501
:100650000C0A38021581257F950175088106C0C0F6
:1006600005010980A101850319012AB7001501269A
:10067000B700950175108100C0050C0901A1018525
:100680000419012AA002150126A002950175108106
:1006900000C005010906A1018506050719E029E743
:1006A000150025019508750181020507190029EF3C
:1006B0001500250195F0750181020508190129052C
:1006C000950575019102950175039101C005010918
:1006D00006A101050719E029E71500250195087510
:1006E0000181029501750881010507190029FF158F
:1006F0000026FF00950675088100050819012905E7
:10070000950575019102950175039101C0001124B1
:100710001FBECFEFDAE0DEBFCDBF04B603FE18C0C8
:100720008091B8039091B903A091BA03B091BB0333
:100730008730904BA740B04B59F41092B8031092F9
:10074000B9031092BA031092BB03E0E0F8E30995F5
:1007500011E0A0E0B1E0E2E9F5E502C005900D92FC
:10076000A03DB107D9F723E0A0EDB1E001C01D9293
:10077000A83BB207E1F70E941C130C94B12A0C9419
:10078000000081E0089581E008950E94C303089568
:1007900008950E94C8030895A5E0B0E0E2EDF3E0FB
:1007A0000C94AC2949835A833091D30189819A8171
:1007B000311119C0662399F0222389F00E94F209B1
:1007C000182F682F89819A810E94CE0969817A81C8
:1007D000812F0E9487102596E3E00C94C8290E947F
:1007E000E009182FF3CF0E94F20969817A81F1CFD5
:1007F000FC01262F408151816281738184810E9496
:10080000CC03089581E00895CF93DF93EC0160E07D
:100810000E94F803BE010E94C903DF91CF910895A1
:100820000E94C31108950E94C711089508950E945F
:100830001D080E9416042FEF84E39CE021508040A5
:100840009040E1F700C0000008950E9417040E9444
:10085000032208950E9417040E94272208950F93EF
:100860001F93CF93DF938C0161E00E94F803EC01AA
:10087000B8010E94C503811106C080E0DF91CF91CD
:100880001F910F910895B801CE010E94891F8823FE
:10089000A1F3B801CE010E94BE1D882371F3B801F7
:1008A000CE010E94FB1E882341F3B801CE010E94B5
:1008B000C81C882311F3F8018281882361F0CB35AD
:1008C000FDE5DF0701F158F4C115ECE5DE0791F015
:1008D000CF3DDC4591F0C8010E94C103CFCFCD359B
:1008E0008DE5D80769F090F0C83ADD45A1F70E9480
:1008F0002A04C3CF0E942504C0CF0E94B80EF7CFB0
:100900000E94F20DE8CF0E94FC0DE5CF0E94000E80
:10091000E2CF0E9434210E94B6040E942E1B08954B
:100920000E94BA040E94051C0E943921089508956E
:100930000E949704089581E00895CF93C82F0E94E4
:100940009B04882319F0C1FF03C0469ACF910895F4
:100950004698FCCF3E9A46980895CF93C82F0E94A0
:1009600098048C2F0E949D04CF91089580E00E94EE
:10097000AD0408950E94E51F0E94AD0408950E94F1
:10098000E51F9091D201981721F08093D2010E9427
:10099000AD040895ABE0B0E0E0EDF4E00C94AD29D7
:1009A0004F83588769877A878B8761110E943D0D35
:1009B0001E821D8285E0FE013796DE0111960190B0
:1009C0000D928A95E1F78C819D81892B61F4498193
:1009D0005A816B817C818D819E810E94660C2B9651
:1009E000E2E00C94C92989819A8189238F3F79F3A8
:1009F000CE0101960E9402048111E9CFF0CFFC01E3
:100A0000808191810E942C0A0895CF93C82F88235A
:100A1000B9F08CEF8C0F813AA8F46C2F809104010F
:100A2000909105010E945A20882329F08C2F0E9462
:100A3000FD0C0E945E0D8C2F0E94F50C0E945E0D35
:100A4000CF91089580E28C0F883048F4C77081E020
:100A500001C0880FCA95EAF70E94200DEFCFEBE5A1
:100A6000EC0FE33040F4F0E0E45AFE4F808190E078
:100A70000E941A20E5CFE8E5EC0FE73150F4F0E0F2
:100A8000EE0FFF1FE25DFE4F808191810E943020BA
:100A9000D7CFCD3EA8F28C2F0E94A0130E947314D2
:100AA000CFCF882379F19CEF980F913A28F40E94D8
:100AB000FD0C0E945E0D089590E2980F983050F45E
:100AC000877091E001C0990F8A95EAF7892F0E94FB
:100AD000260DEFCF9BE5980F933028F490E080E04F
:100AE0000E941A20089598E5980F973128F490E015
:100AF00080E00E94302008958D3E20F00E94FA137D
:100B00000E94731408951F93CF93DF93182FEB0166
:100B10000E940505209739F4812F0E945105DF912D
:100B2000CF911F9108958FE99FE00197F1F700C0E1
:100B300000002197EFCF70E060E0893311F460E5A9
:100B400070E00E9483050895882321F00E94200D03
:100B50000E945E0D0895882321F00E94260D0E94B8
:100B60005E0D0895B0E0A0E0E8EBF5E00C94A62956
:100B70006C01D62FC72FFC011281F580F2949FE003
:100B8000F9220E94160DE82E8823B9F0E12E1123D8
:100B9000A1F08C2F807F803421F080E28D0F88308F
:100BA000D0F08091530382FF16C082E00E94C10DF5
:100BB0000E94160D91E0E82EE926BC2EB2948FE03B
:100BC000B822FBE0FB1508F468C0EB2DF0E0ED5413
:100BD000F54D0C946629E12CF0CF0C2F0F70C07FDF
:100BE00011F00295007F112399F0002359F080E263
:100BF0008D0F883010F0D11107C0802F0E94200D7A
:100C00000E945E0D8D2F41C0802F0E94300DF8CFC5
:100C10008D2F0E945105002309F43FC080E28D0F03
:100C2000883010F0D11104C0802F0E94260D03C01F
:100C3000802F0E94360D0E945E0D2FC00C2F0F706A
:100C4000C07FC03211F00295007FDD2381F0D130EA
:100C500009F463C0112309F46DC0FF2009F463C0D7
:100C6000F601858180FFCECF8F7085835CC0809137
:100C7000530382FD33C0112359F0002329F0802F44
:100C80000E94200D0E945E0D80E00E94050505C0B7
:100C900080E00E9451050111C7CFEB2DE850FF0BFA
:100CA000349720F40E94E51F0E94AD04EE2089F0E5
:100CB0000E94120D80FD0DC0F60112820E940C0DE3
:100CC0000E94D608C6010E94DD070E940C0D0E94FA
:100CD000F808CDB7DEB7E9E00C94C229112389F0FA
:100CE000F11006C00E94400D802B0E94A405D5CFB4
:100CF00021E0F212F7CF0E94400D802B0E94470D99
:100D0000CCCFF11006C00E94540D802F0E94AB057D
:100D1000C4CF31E0F31609F2F6CF112331F085E0AC
:100D20008F1508F4BACF802FE0CF94E09F1508F418
:100D3000B4CFEBCFFF2049F3D93349F4FFEF27EECF
:100D400033E0F15020403040E1F700C000008D2F2B
:100D50000E945105A2CF8C2F86958695837069F0ED
:100D6000813009F09ACF8D2F9C2F9370111102C002
:100D700090E080E00E94302090CF8D2F9C2F9370C8
:100D8000111102C090E080E00E941A2086CF8D2FC2
:100D9000112329F00E94A0130E9473147ECF0E9499
:100DA000FA13FACF8C2F837009F041C0111175CF5F
:100DB0004D2F429546954770440F440F0D2F0F70ED
:100DC00010E030E020E0042E04C0000F111F221FAD
:100DD000331F0A94D2F760E070E0CB01D4FF0FC05C
:100DE0006FE070E080E090E004C0660F771F881F1E
:100DF000991F4A95D2F76095709580959095C69504
:100E0000C695C370602B712B822B932BC23049F097
:100E100058F4C13019F00E9481083FCF0E946E083B
:100E20003CCF0E94940839CF0E946B0836CF86953C
:100E3000112311F08C2F8170882309F42ECF4D2FB0
:100E4000429546954770440F440F0D2F0F7010E0E8
:100E500030E020E0042E04C0000F111F221F331FBA
:100E60000A94D2F760E070E0CB01D4FF0FC06FE0CE
:100E700070E080E090E004C0660F771F881F991F24
:100E80004A95D2F76095709580959095C695C695D0
:100E9000C370602B712B822B932BC23049F058F416
:100EA000C13019F00E945109F8CE0E943E09F5CEDA
:100EB0000E946409F2CE0E94AD08EFCECF701123DC
:100EC00029F08C2F0E94D6088D2F0FCF8D2F0E94D6
:100ED000AB058C2F0E94F808E0CED23F51F160F4B0
:100EE000D03FB9F0D13F81F0112309F449C0F1108E
:100EF00089CE8C2F8F7121C0D33F11F1D43FA1F740
:100F00008091530382FD26C08C2F8F71112311F322
:100F100014C0112349F084E08F1508F4BECE8C2F45
:100F20008F710E941C09B9CE95E09F1508F4B5CECB
:100F3000F6CF8C2F8F711111CDCF0E94D608ADCE78
:100F4000112329F08C2F8F710E94C008A6CE0E9419
:100F5000BA08A3CE112349F0CF718C2F0E94D60876
:100F600063E08C2F0E94A30D98CE81E00E94C10DFA
:100F7000E1E0EF1508F091CE82E00E94C10D8DCE28
:100F8000F110DACE8C2F8F71A5CF0F931F93CF93D3
:100F9000DF93EC01688179818A810E94370A8C0194
:100FA0000E9477090E946A08B801CE010E94B2052A
:100FB000DF91CF911F910F910895CF93DF93EC01B3
:100FC0008B819C81892B29F08881998189238F3F8E
:100FD00051F4DF91CF910895CE010E94C507CE0153
:100FE0000E940404F6CFCE010E942F048111F4CF99
:100FF0000E94160D882369F38A81882351F380911A
:10100000530382FFE6CF82E00E94C10DE2CF90E061
:1010100080E00E941A2090E080E00E9430200E9430
:101020003D0D0E945E0D0E948F140E94731408955E
:101030000E94050D0E94070808950E942D0D0E9430
:101040001808089592959F70963091F058F4925F29
:101050009F70923058F4803F19F030F4883E30F49D
:1010600081E008959A5FF4CF843FD1F380E0089542
:10107000883EB0F3813FD1F7F3CFFC0180819181AD
:101080000E942C0A0E9422080895A5E0B0E0EBE43B
:10109000F8E00C94AD292596E2E00C94C929A6E06D
:1010A000B0E0E5E5F8E00C94AD292696E2E00C947A
:1010B000C92908950E94590808950E945A0860930A
:1010C00014027093150280931602909317020E94E7
:1010D0000708089508950E945D0808950F931F93CF
:1010E00000911402109115022091160230911702FE
:1010F000602B712B822B932B0E945D081F910F9107
:1011000008950F931F9300911402109115022091DE
:1011100016023091170260237123822393230E94C9
:101120005D081F910F9108950F931F930091140272
:101130001091150220911602309117026027712735
:10114000822793270E945D081F910F9108950E94A6
:10115000590808950E94A70808950E94AA0860935C
:1011600010027093110280931202909313020E9456
:101170000708089560E070E0CB010E94AD08089573
:101180000F931F9341E050E060E070E08A019B0103
:1011900004C0000F111F221F331F8A95D2F7C90107
:1011A000B8010E94AD081F910F9108950F931F93EE
:1011B00041E050E060E070E004C0440F551F661F3E
:1011C000771F8A95D2F78091100290911102A09119
:1011D0001202B09113028A019B01082B192B2A2BB2
:1011E0003B2BC901B8010E94AD081F910F910895D2
:1011F0000F931F9341E050E060E070E004C0440FA3
:10120000551F661F771F8A95D2F7CB01BA016095EB
:101210007095809590950091100210911102209187
:1012200012023091130260237123822393230E94C0
:10123000AD081F910F9108950F931F9341E050E067
:1012400060E070E004C0440F551F661F771F8A9549
:10125000D2F78091100290911102A0911202B091E8
:1012600013028A019B01082719272A273B27C90156
:10127000B8010E94AD081F910F9108950F931F931D
:10128000009110021091110220911202309113026C
:10129000602B712B822B932B0E94AD081F910F9115
:1012A00008950F931F930091100210911102209145
:1012B00012023091130260237123822393230E9430
:1012C000AD081F910F9108950F931F930091100285
:1012D00010911102209112023091130260277127A0
:1012E000822793270E94AD081F910F9108950895BA
:1012F000262F277091E001C0990F2A95EAF723E085
:10130000769567952A95E1F725E0269FF001279FBE
:10131000F00D1124E40FF51F50E040E0682F70E05D
:101320008191DF0111979B01042E02C0369527950C
:101330000A94E2F7217021952827292328272C9346
:101340004F5F5F4F4530510559F70895A82FA7709B
:1013500023E0969587952A95E1F725E0289FF001EF
:10136000299FF00D1124E60FF71F50E040E080E0C8
:10137000219130E00A2E02C0369527950A94E2F7B3
:1013800021703327042E01C0220F0A94EAF7822B22
:101390004F5F5F4F4530510559F70895262F96301E
:1013A00070F48F3060F4682F70E08FE0989F600DCC
:1013B000711D112444ED51E0822F0E947809089597
:1013C000292F963068F48F3058F490E064ED71E086
:1013D0003FE0239F800D911D11240E94A6090895CE
:1013E00080E00895B0E0A0E0E8EFF9E00C94A629D1
:1013F0008C01C0901002D0901102E0901202F09087
:1014000013028091140290911502A0911602B091DE
:101410001702C82AD92AEA2AFB2ACFE1D0E0BC2E3B
:10142000D701C6010C2E04C0B695A7959795879550
:101430000A94D2F780FD09C0219788F7B12C8B2D33
:10144000CDB7DEB7E9E00C94C229B8018C2F0E9419
:10145000A210019789F3F3CFCF93DF93EC010E94A1
:10146000F209BE010E94A210DF91CF9108951F934F
:10147000CF93DF93EB019091D301992339F0CB0106
:101480000E942C0ADF91CF911F910895882369F063
:10149000CB010E94F209182F682FCE010E94CE09BD
:1014A000BE01812F0E94A210EDCFCB010E94E00966
:1014B000182FF6CF1F93CF93DF93C091180216E039
:1014C000809119028C1304C0DF91CF911F91089570
:1014D000D0E01C9FF0011D9FF00D1124E65EFD4F32
:1014E0004081518162817381848195810E944F087E
:1014F0002196C770E5CF40914A0250914B0260910E
:101500004C0270914D0280914E0290914F020E94C8
:101510004F0808951F93CF93DF9380914F02807FF0
:1015200009F049C080914C02882309F444C080919D
:101530001802C091190260914A0270914B02A09169
:101540004D02B0914E02D62FD72316E0C81799F15D
:1015500090E0109711F0DF3F19F401968770F6CFF5
:10156000189F9001199F300D1124F901E65EFD4F7F
:1015700041814713F2CF40814613EFCF42814111A1
:10158000ECCF438154814A1B5B0B483C510528F743
:1015900080914F028F70806180934F02F901E15E6C
:1015A000FD4F80818F70806180838AE492E00E9489
:1015B000DD070E945A0ADF91CF911F910895A1E1A2
:1015C000B0E0E5EEFAE00C94A5298C0185E0F80185
:1015D000DE011D9601900D928A95E1F7F801E280F7
:1015E0008AE4C82E82E0D82E60914D0270914E029E
:1015F0006115710509F44EC190914A0220914B0288
:10160000892F82238F3F09F445C140815181A380F6
:10161000B480F0904C02F501E61BF70BFF2009F4B3
:10162000EAC080914F02382F307FE83CF10508F086
:10163000A3C031116DC0FE2C251316C0941314C025
:10164000E11012C08F70806180934F020E947B0A6C
:10165000C6010E94DD0780914F02F80185838F2D1E
:101660006196EAE00C94C129A114B10429F0842FF9
:1016700085238F3F09F027C180E0F82FF170DF2E1E
:1016800080FF3CC0809118022091190236E082133D
:1016900015C04D875E878D859E850E942C0A292F57
:1016A00022952F702230F0F0243018F59F70F1F061
:1016B000F8019581907FD1F4D12C1EC090E0389F25
:1016C000F001399FF00D1124E65EFD4F6181651335
:1016D00006C06081641303C06281E6120FC00196E8
:1016E0008770D5CF9F7011F0882331F3805E8830EA
:1016F00018F3C8010E94DD07FD2CB1CFEE2009F4DC
:10170000AECF80914F02816080934F02F12CA7CF22
:10171000251306C0941304C0F801EE2009F487C015
:10172000C8010E943D08882319F1EE2009F180913B
:101730004F02803270F020914A0230914B0238877C
:101740002F831986BB86AA868C87CE0107960E94B6
:10175000DD0786E0F801AAE4B2E001900D928A95D7
:10176000E1F70E948A0A0E947B0AFF24F39477CF54
:10177000C8010E94DD07F9CF311113C07A2DB98A53
:10178000A88A6E2D89890E9445088AE492E00E9409
:10179000DD0786E0F60111928A95E9F70E947B0A3F
:1017A000B5CF25130FC094130DC0E1100BC0F80185
:1017B0008583C8010E94DD0786E0F60111928A95B3
:1017C000E9F74DCFC8010E943D08882389F2EE2039
:1017D00079F280914F02803208F4BBCF20914A0207
:1017E00030914B023A8329831B82BD82AC828E8367
:1017F000CE010196ACCFE83CF10508F03EC0FE2CCE
:10180000EE2009F4B5CF25132AC0941328C0809187
:101810004F0280FD1BC0982F907FC1F0F801858397
:10182000903F31F0982F907F905F8F70892B858348
:10183000C8010E94DD0786E0F801AAE4B2E0019049
:101840000D928A95E1F70E947B0A09CF86E0F801A4
:10185000AAE4B2E001900D928A95E1F700CFC801A9
:101860000E943D08811175CF80914F028160809365
:101870004F02C8010E94DD07F2CE7A2DB98AA88AEC
:101880006E2D89890E94450886E0F60111928A959D
:10189000E9F7D9CFEE2009F46BCFC8010E943D08CB
:1018A000F82E882309F464CF86E0F801AAE4B2E0B8
:1018B00001900D928A95E1F78AE492E00E94FF047C
:1018C0000E948A0AC0CF81E08E25D7CEACE0B0E07E
:1018D000ECE6FCE00C94AC294F83588769877A8743
:1018E0008B879C87CE0107960E94DF0A882369F0C8
:1018F0008A859B85892B39F04F815885842F8523D4
:101900008F3F09F06BC016E05FC086E0FE0137969E
:10191000DE01119601900D928A95E1F78A859B85EB
:10192000892B89F388859F8189238F3F61F32091DB
:10193000190230E0C9010196877099274091180279
:101940004817190671F40E941D081092190210928E
:10195000180286E0EAE4F2E0DF011D928A95E9F7D9
:10196000D2CF96E0929FD001939FB00D1124A65E36
:10197000BD4FFE01319601900D929A95E1F780934B
:1019800019020E945A0ABFCF819FC0011124865EAE
:101990009D4F0E94DF0A8823E9F0E09118021E9F04
:1019A000F0011124E65EFD4F408151816281738117
:1019B000848195810E944F088091180290E00196E1
:1019C00087709927809318028091180290911902CC
:1019D0008913DACF2C96E3E00C94C82969857A85BF
:1019E0008B859C850E944F088ECF682F80910401C3
:1019F000909105010E94DA200895682F80910401DA
:101A0000909105010E94E820089580910401909131
:101A100005010E94F62008958091700285958595B4
:101A20008595089580917002877008959091700255
:101A3000977081E009F480E0089580919302089501
:101A400090919302892B80939302089580959091B1
:101A5000930298239093930208951092930208950D
:101A600090919202892B8093920208958095909193
:101A700092029823909392020895109292020895F0
:101A800080917102089508950E94430D08959091E8
:101A9000530392FF08C090917102981721F0809330
:101AA00071020E94440D089580917102882329F0EB
:101AB0001092710280E00E94440D0895CF93DF934D
:101AC000E0910401F0910501809193028083E091FF
:101AD0000401F0910501808190919202892B80830D
:101AE00090917102992381F0E0910401F091050138
:101AF0008081892B808380910401909105010E944F
:101B0000462081110E94540DC0910401D09105011D
:101B100040E250E060E572E0CE010E943D2A892B50
:101B200059F080E2FE01A0E5B2E001900D928A95A5
:101B3000E1F7CE010E94F21FDF91CF910895089541
:101B40000E949F0D08959091530392FF11C098E059
:101B5000899F90011124622B609370020E94D60825
:101B6000809170028595859585950E94A00D0895B8
:101B70000E94D60808951092700280E00E94A00D85
:101B80000895909170028095892380937002282F88
:101B9000277091F4282F082E000C330B9217130690
:101BA00059F09091530392FF07C0859585958595CF
:101BB0000E94F8080E94BB0D08959091530392FB78
:101BC000222720F9281769F080FB92F9909353039C
:101BD00080915203909153030E942E0E82E00E9446
:101BE000C10D08958091530382FB882780F991E00D
:101BF00089270E94DD0D089581E00E94DD0D089582
:101C000080E00E94DD0D08956FEF7FEF90E080E0AF
:101C10000E947C2A089590E080E00E94582A21E0EA
:101C2000883E9E4F09F020E0822F089582E090E0E8
:101C30000E944A2A089583E090E00E944A2A08956B
:101C4000CF9384E090E00E944A2AC82F82E290E07D
:101C50000E944A2A982F8C2FCF910895CF93C92F95
:101C6000682F84E090E00E945E2A6C2F82E290E070
:101C70000E945E2ACF910895AB01BC018FE090E0F5
:101C80000E94702A0895AB01BC0183E190E00E949C
:101C9000702A089560E070E0CB010E94430E089521
:101CA00060E070E0CB010E943C0E0E944A0E089555
:101CB00068EE7EEF90E080E00E947C2A60E082E0A7
:101CC00090E00E945E2A60E083E090E00E945E2A3D
:101CD000109214021092150210921602109217021E
:101CE00060E084E090E00E945E2A64E082E290E09E
:101CF0000E945E2A60E085E090E00E945E2A60E03B
:101D000086E090E00E945E2A6FEF87E090E00E94FC
:101D10005E2A40E050E0BA0188E090E00E94702A1C
:101D200060E08DE090E00E945E2A40E050E0BA0161
:101D300088E190E00E94702A60E087E190E00E94D4
:101D40005E2A40E050E0BA018CE190E00E94702AE7
:101D500070E060E080E290E00E947C2A40E050E089
:101D6000BA0188E190E00E94702A0E94500E089506
:101D70000E94580E0895682F8EE090E00E945E2A1F
:101D800008950E94C4216093A4027093A5028093D9
:101D9000A6029093A7026093A0027093A102809381
:101DA000A2029093A3020895089508950E94D50E6B
:101DB000089508950E94D90E089581E891E10E9446
:101DC000DB1F0E94D40E0E94D60E089581E0089574
:101DD0000E94E60E0895089508950E94EB0E0E9459
:101DE000EC0E08950E949D110E94AA0408950E947D
:101DF000AF210E9483120E94F20E0E94C91BE2E5ED
:101E0000F3E0808180688083809152039091530336
:101E10000E942E0E0E94DA0E0895AAE0B0E0E3E1DF
:101E2000FFE00C94A0290E949912A82E81110E9413
:101E3000C10E34E9832E32E0932E10E000E0502EE4
:101E4000802F0E94CA116C01F401619071904F01C2
:101E50006816790609F443C08091A80281FD0E94AA
:101E6000D311B12CEE24E394F12C6C247D24C30116
:101E70008E219F21892B69F10E94E80E8823B1F001
:101E8000BE825F82CE20DF2081E0C114D10409F43C
:101E900080E088870E94B8218160782F9A8789879F
:101EA0004E815F8168858A850E94CA04000F111FD8
:101EB000F801EC56FD4F80819181E826F926F182E8
:101EC000E08281E0A11001C080E02A96EFE00C944E
:101ED000BC29B394EE0CFF1CFFE0BF12C8CF0F5F0C
:101EE0001F4F0630110509F0AACF8FEF89838A832F
:101EF0001B820E94B8218160782F9D838C83498149
:101F00005A816B818D810E94CA04DBCF0E940D0F24
:101F10000E940F1C0E94B1140E94BF040895CF9329
:101F2000DF930E94A710EC01811521E5920708F0CC
:101F300042C0811530E5930708F09DC0883E9105A9
:101F400030F5803E910508F092C0883A910588F4FA
:101F5000853A910508F084C08130910509F487C065
:101F6000009709F484C0049708F081C0D0E0C0E075
:101F70007EC08F3B9105D0F7C85AD0E0CC0FDD1F53
:101F8000C15ADE4F0990D881C02DD46470C081152C
:101F9000904250F4C11581E0D80708F068C0CD3EEA
:101FA000D10520F3D06563C0C11590E4D907F0F2E4
:101FB000DF70D06A5CC0811525E5920700F58115B8
:101FC00034E5930708F08BC0811543E5940708F0CA
:101FD00073C0C11582E5D80708F469C0CE018370CB
:101FE000992721E030E002C0220F331F8A95E2F7E3
:101FF000C695C69580E2C89FE001112454C0C11562
:1020000099E5D907A8F4C11528E5D20708F06CC0F6
:10201000C11536E5D30708F0A9CF8C2F0E943E11D9
:10202000C82FD0E0DC2FCC27CC27DF71D0621FC0B7
:10203000C1154AE5D40708F45CC0CE01905681155D
:10204000904208F093CF8D2F8F710E943E1190E047
:10205000982F882788279F719C012C2BE901E6CFB8
:10206000C55AD0E0C357DE4FC881D0E0D064CE015E
:10207000DF91CF910895E4E096958795EA95E1F791
:1020800083702C2F26952695237040E2249F900183
:102090001124382B8C2F8370C1E0D0E002C0CC0F0C
:1020A000DD1F8A95E2F7C22BD32BDC68E0CFDC2F53
:1020B000CC27C16FD06ADBCF8370992721E030E055
:1020C00002C0220F331F8A95E2F7C695C69590E2AB
:1020D000C99FE0011124C22BD32BDA68C8CFD82FB7
:1020E000CC27C46FD06AC3CFDC2FCC27C06FD06A97
:1020F000BECF8C2F8F700E943E1134E0D695C795CD
:102100003A95E1F7CF709C2FEC01D069B0CF972FB3
:102110007630A8F46F3098F470E02FE0929F600D55
:10212000711D1124FB019AE5899FE00DF11D112419
:10213000EE0FFF1FE455FF4F85919491089580E0C5
:1021400090E008950E9487100E948F0F08958238B2
:102150009105B1F1B0F48133910509F475C048F4EB
:102160008932910509F469C08A32910509F473C076
:1021700008958533910509F459C08933910501F11A
:102180000895833E9105A9F138F4803E9105F9F058
:10219000823E910549F10895863E9105A9F1873E59
:1021A0009105C9F1843E910519F52091530321FF52
:1021B0001FC08091520384FD14C087EE90E0089503
:1021C000209152032370A1F080EE90E008952091B9
:1021D000520320FD47C03091530330FF09C024FF54
:1021E00044C090E080E004C02091520322FDF7CF6C
:1021F00008952091520322FD3BC03091530330FDDE
:10220000E3CF24FFF5CFEDCF2091520323FFF0CF92
:1022100024FDE7CFD2CF2091520323FD2CC0309173
:10222000530331FFEECF84EE90E0089520915203E6
:1022300025FFDECF89E290E008952091520325FF2B
:10224000D7CF85E390E008952091520326FFD0CFA9
:102250008AE290E008952091520326FFC9CF81E3DE
:1022600090E0089589E390E0089583EE90E008956A
:1022700082EE90E0089586EE90E0089590915203EA
:1022800092FF06C0282F28712830F9F4877F8460D8
:1022900093FF06C0282F28712831F1F4877E8461CE
:1022A0002091530320FF06C0382F38713830D9F4FD
:1022B000877F816021FF06C0282F28712831D1F443
:1022C000877E816194FD877E0895282F24712430B4
:1022D000F9F68B7F8860DCCF282F2471243101F739
:1022E0008B7E8861DDCF382F3171313019F78E7FC9
:1022F0008860E0CF282F2171213121F78E7E8861FF
:10230000E1CF80E008950E94040E08950E94991282
:102310008FE39CE90197F1F700C000000E94991239
:1023200080E00E94CA1180FF04C00E9483110E94B5
:10233000032208950E94861108950E940B0E8111B8
:1023400002C00E94B80E0E94160E8093A8020E943E
:10235000200E90935303809352030E949A110E947F
:102360001B0E682F70E090E080E00E946B08609187
:1023700010027091110280911202909113020E943A
:10238000AA08089508950E94C211089508950E9410
:10239000C6110895E82FF0E0EE0FFF1FE05AFC4F42
:1023A000808191810895089580EA8A95F1F70895D2
:1023B00000C008950E94D4110895F894E82FE29582
:1023C000EF70F0E031A1282F2F7081E090E001C084
:1023D000880F2A95EAF7982F9095932391A392A1BD
:1023E000892B82A3789408950F931F93CF93DF9343
:1023F000CFE9D1E089918F3F11F00E94DD1181E09A
:10240000C53AD807B9F7C0E9D1E00FE911E08991E1
:102410008F3F11F00E94DD110C171D07C1F7DF91EE
:10242000CF911F910F910895AF92BF92DF92EF92DB
:10243000FF920F931F93CF93DF938C01D62EC62F5D
:10244000D0E0CE0181569E4F7C01FC0120812F3FC0
:1024500009F44CC0F894E22FE295EF70F0E031A15E
:102460002F7081E090E001C0880F2A95EAF7932F42
:10247000982B91A392A18095892382A378940E949E
:10248000D811E0E9F1E041E050E0B12CA12C21911C
:102490002F3FB1F1A22FA295AF70B0E090968C9132
:1024A00090E02F7002C0959587952A95E2F780FD00
:1024B00027C0CA01A82AB92A440F551F81E0EF3965
:1024C000F80729F7F70180818F3F11F00E94DD1195
:1024D00061E0A114B10409F460E08D2D0E94DA11CD
:1024E000CC0FDD1FC00FD11FB982A882DF91CF9121
:1024F0001F910F91FF90EF90DF90BF90AF900895E4
:1025000090E080E0D7CF0E94F4118CE0E0E6F3E0A9
:10251000DF01982F1D929A95E9F7E4E5F3E0DF01DA
:102520001D928A95E9F786E00E94D5120E94100458
:102530000895ACE0B0E0EFE9F2E10C94AA298E0135
:102540000F5F1F4F8CE0F80111928A95E9F7F12C8B
:102550006F2DC8010E941412F394F6E0FF12F8CF19
:102560004CE050E0B80184E593E00E943D2AFF244E
:10257000F394009709F4F12C892B41F08CE0F801D9
:10258000A4E5B3E001900D928A95E1F72F2D46E086
:1025900060E673E084E593E00E94D6120E94130483
:1025A0008F2D2C96E5E00C94C6290895FF920F9389
:1025B0001F93CF93DF93F82E092F162FD72FC42FF9
:1025C000222349F081E08093AB020E94B8219093CE
:1025D000AA028093A9028091AB028823A1F0809186
:1025E000A9029091AA020E94D021059760F0EF2DD8
:1025F000F02FA12FBD2F90E080E0D0E08C179D0739
:102600003CF01092AB02CDB7DEB7E5E00C94C629E2
:10261000219131912D933D930196F0CF0E94DD23BE
:102620000E94F70E0E94EA2308950E94EF230E9461
:10263000860F0E94092408950E9451210E94C323FD
:102640000E94DD0E0E940E130E9415130E94ED0ED3
:10265000FBCF8091B20280FF0DC060910B0170E052
:10266000660F771F6038710570F56115710569F1A6
:10267000862F089581FF07C060910B0184E0689F59
:10268000B0011124EFCF60910B0182FD0AC080914F
:10269000B1028823A9F020910A0160910B018217F1
:1026A00010F088E0ECCF869FC001112433E0880F42
:1026B000991F3A95E1F7622F70E00E943029D2CF3E
:1026C00068E070E0D5CF8FE7089581E008958091AC
:1026D000B20280FF0CC06091070170E075956795AC
:1026E000759567956115710549F1862F089581FFEC
:1026F00006C06091070170E075956795F3CF609112
:10270000070182FD0BC09091B0029923A1F0609166
:10271000060180910701961738F0682F70E0603845
:10272000710500F38FE70895899FC001112470E0BF
:102730000E943029F4CF61E070E0D7CF81E00895A6
:102740008D3E31F40E94291381958093B60208953D
:102750008E3E19F40E942913F8CF8F3E31F40E9467
:10276000291381958093B5020895803F19F40E9442
:102770002913F8CF893F29F40E9467138093B70289
:1027800008958A3F21F40E9467138195F7CF8B3F0C
:1027900031F40E94671381958093B80208958C3FAD
:1027A00019F40E946713F8CF9FE0980F983070F4E7
:1027B000815F990B21E030E001C0220F8A95EAF792
:1027C0008091B402822B8093B40208958D3F31F43E
:1027D0008091B20281608093B20208958E3F21F40D
:1027E0008091B2028260F7CF8F3FB9F78091B20239
:1027F0008460F1CF4091B5028D3E59F48091B602CC
:1028000087FF0DC01092B60241110BC01092B102A9
:1028100008C08E3E81F48091B60218169CF34423C2
:1028200081F08091B7029091B802892B09F05AC0CB
:102830001092B00208958F3E49F447FFF0CF1092F6
:10284000B5028091B6028111ECCFE0CF803F19F440
:102850001416ACF3E4CF9091B702893F29F419160E
:10286000F4F61092B702DBCF8A3F19F497FFD7CF67
:10287000F8CF9091B8028B3F29F497FFD0CF1092F8
:10288000B802CDCF8C3F19F41916CCF3C8CF9FE016
:10289000980F983090F4815F990B21E030E0B901F6
:1028A00002C0660F771F8A95E2F7CB018095909161
:1028B000B40289238093B402B2CF8D3F31F480916A
:1028C000B2028E7F8093B202AACF8E3F21F4809114
:1028D000B2028D7FF7CF8F3F09F0A1CF8091B20276
:1028E0008B7FF0CF08950E94B8219C019091B50292
:1028F0008091B602982B21F03093AF022093AE0264
:102900009091B7028091B802982B21F03093AD02DC
:102910002093AC0283EB92E00E940C20089586E0A5
:10292000E3EBF2E0DF011D928A95E9F71092B10224
:102930001092B0021092B2020895FC0182818111BE
:102940000EC0838181110BC08481811108C091E088
:102950008581811101C090E0892F8170089581E007
:10296000FCCFA6E0B0E0E7EBF4E10C94AC2986E004
:10297000E3EBF2E0DE01119601900D928A95E1F70A
:102980001092B5021092B6021092B7021092B802DD
:102990008B819C81892B89F08091AE029091AF024E
:1029A0000E94D021AC019091B1029923C9F180918C
:1029B0000C018417150608F440C08D819E81892B77
:1029C00091F08091AC029091AD020E94D021AC01B7
:1029D0009091B002992309F471C080910801841785
:1029E000150608F479C0BE016F5F7F4F83EB92E05C
:1029F0000E940821811105C083EB92E00E949D1482
:102A000081110E94731486E0FE013196A3EBB2E0BF
:102A100001900D928A95E1F72696E3E00C94C8297F
:102A200020910D018AE0289F900111242417350779
:102A300020F69F5F9093B10202C09F3FD1F71B81A8
:102A4000112359F00E9429139FEF11160CF491E005
:102A5000899F802D11248093B5021C81112359F088
:102A60000E9429139FEF11160CF491E0899F802D8D
:102A700011248093B6023091B502332309F49DCF1F
:102A80002091B602222309F498CF45EB3403C0010C
:102A90001124992359F09093B50245EB240390013A
:102AA0001124332339F03093B60287CF81E080932D
:102AB000B502F3CF81E08093B6027FCF2091090168
:102AC0008AE0289F900111242417350708F08BCF46
:102AD0009F5F9093B00202C09F3FD1F71D811123E9
:102AE00059F00E9467139FEF11160CF491E0899F33
:102AF000802D11248093B7021E81112359F00E946A
:102B000067139FEF11160CF491E0899F802D11241B
:102B10008093B8023091B702332309F464CF209137
:102B2000B802222309F45FCF45EB3403C00111241E
:102B3000992359F09093B70245EB24039001112497
:102B4000332339F03093B8024ECF81E08093B7023F
:102B5000F3CF81E08093B80246CFEF92FF920F93BC
:102B60001F93CF93DF93EB01E82FD1110EC04423C5
:102B700021F0F0E0EA56FB4FE4916E2F7E2F8E2F6E
:102B8000CDB7DEB7E6E00C94C5290D2F10E0282F55
:102B900030E0442329F02A563B4FF901249130E0DC
:102BA000F6E0CF9FC0011124EFEFF0E0BF010E94DB
:102BB0001C29AB018C2F90E0880F991FA5E5A49FDD
:102BC000B001A59F700D1124861B970B982F990FAC
:102BD000980FBF01601B710B629FD001639FB00D06
:102BE000729FB00D11248B2F9D9FB0011124672F70
:102BF0007727EF01C61BD70BBE01629FE001639FE1
:102C0000D00D729FD00D11247F01E91AF108E09ECA
:102C1000B001E19E700DF09E700D1124672F772793
:102C2000E61BF70BE29F8001E39F100DF29F100D52
:102C30001124E12F722F4230510599F048F44115CB
:102C4000510569F04130510581F0EB2F8D2F07C000
:102C50004430510569F080F046305105B1F76E2FD0
:102C60008FCFE22F7B2F812FFACFE22F7D2FF7CF4F
:102C7000EB2F822F712FF3CF7B2F822FED2FEFCFF2
:102C800041E00E94AD15089508950E9440160895F0
:102C9000CF93DF93762FE901682F842F0E9445168A
:102CA000798368838A83DF91CF91089580916C0343
:102CB000982F9E7F29F48170826080936C03089521
:102CC0008635E8F381708465F8CF88E090E00E9453
:102CD000522A0895CF92DF92EF92FF926B017C010E
:102CE0000E945616B701A60188E090E00E94702A63
:102CF000FF90EF90DF90CF900895ECE6F3E08DE049
:102D0000808311828FEF828383838FE0848360814D
:102D10007181828193810E946A16089580916C036B
:102D200080FF02C08695089580E008959091700319
:102D3000933018F49F5F90937003882351F0609153
:102D40006C0370916D0380916E0390916F030E94EC
:102D50006A16089581E00E94961608959091700376
:102D6000992319F0915090937003882351F060914A
:102D70006C0370916D0380916E0390916F030E94BC
:102D80006A16089581E00E94AE16089570E00E94D0
:102D9000921D08956091120180916C0380FF0BC019
:102DA0008091110123E0829FC00111248F589C4F14
:102DB0000E94C6160895809113019091140123E09A
:102DC000829FF0011124EF58FC4F891748F71182B8
:102DD000108212828F5F3396F8CF90916C0390FF30
:102DE0000EC0909113012091140133E0939FF001E4
:102DF0001124EF58FC4F921718F00E94CA1608953C
:102E00008183608342839F5F3396F5CFA3E0B0E078
:102E1000ECE0F7E10C94AD2990916C0390FF0AC0AF
:102E20009E012F5F3F4F0E9448164B8169818A8126
:102E30000E94ED162396E2E00C94C929CF93DF930C
:102E4000EC01EC81F0E0EF56FC4F4491ECE6F3E04E
:102E5000628181810E9406178C818F5F8C83DF9154
:102E6000CF910895CF93DF93EC01ECE6F3E043813B
:102E700062818C810E9406178C818F5F8C83DF9129
:102E8000CF910895A3E0B0E0E8E4F7E10C94AB291A
:102E90008C018091B90281110AC09E012F5F3F4FC2
:102EA0004FEF6FEF0E9448168A818093B902F801B4
:102EB0006481613069F08091B90240E0662361F07D
:102EC00040E0623011F44091B90280E060E004C05B
:102ED0006091B90240E080E00E94ED16F801848123
:102EE00090E0019663E070E00E943029848323968D
:102EF000E4E00C94C729A3E0B0E0E1E8F7E10C942A
:102F0000A629082FD62EE42EC22E90916C0390FF96
:102F100029C0E92FE695AE2FB0E0AB55BE4F8C919E
:102F200080931F039E7F923009F59E012F5F3F4FD4
:102F3000802F0E9448164B8169818A810E94ED167C
:102F400000936D03D0926E03E0926F03CC2051F09A
:102F500060916C0370916D0380916E0390916F038B
:102F60000E946A162396E9E00C94C229823019F473
:102F7000E0906F03E5CF863019F400916D03E0CF48
:102F80008930D9F38931E1F6E9516E2F6170B62E9F
:102F9000E695F0E0EF56FB4F1491F12C609115018E
:102FA000F61618F00E94CA16CBCFF19EC00111246C
:102FB00070E00E941C29802FB11014C0860F209150
:102FC0001301622F6F0D7727771F9B01220F331F8D
:102FD000260F371F2F583C4F4E2D6D2D0E9448163F
:102FE000F394DCCF861BEBCFECE6F3E09181282F46
:102FF000438162818AE0890F0E947B17089581E0F6
:103000000E94F4170895ECE6F3E09181282F4381A4
:10301000628186EF890F0E947B17089581E00E94EC
:1030200003180895ECE6F3E062812AE0620F08F4E9
:103030006FEF282F438181810E947B17089581E0E3
:103040000E9412180895ECE6F3E062812AE0621B08
:1030500008F460E0282F438181810E947B17089546
:1030600081E00E9423180895ECE6F3E043812AE012
:10307000420F08F44FEF282F628181810E947B1755
:10308000089581E00E9434180895ECE6F3E043814E
:103090002AE0421B08F440E0282F628181810E94CF
:1030A0007B17089581E00E944518089520E00E9452
:1030B0007B170895EF92FF921F93CF93DF93EC015C
:1030C00010E0EE24EA94F12C60911501161770F0CF
:1030D0000E94CA169A818C8190FF27C08F5F8C83D3
:1030E000DF91CF911F91FF90EF90089520911301F0
:1030F000422F410F5527551FCA019A01220F331F36
:10310000280F391F2F583C4F70E0C7010E9430290B
:10311000962F8C8140916F0360916E03199F800DF3
:1031200011240E9448161F5FCFCF8150D8CFB0E046
:10313000A0E0EDE9F8E10C94A529FC0182810FEFF4
:1031400080FF01E010E042E1A42E809115011817E4
:1031500098F00E94CA168091BB02013009F04FC05E
:10316000811102C08091150181508093BB02CDB7BF
:10317000DEB7EAE00C94C129C0911301C12ED12C15
:10318000CC0DDD2DD11DCE01880F991FC80FD91F81
:10319000CF58DC4F198218821A8234E0E32EF12CCA
:1031A000B12C8091BB028B0D83311CF16A2D0E94E2
:1031B0000E29892F082E000C990BC816D90691F4F8
:1031C00080916F038E9DA0018F9D500D1124559508
:1031D0004795559547959E0160916E0380916D03CB
:1031E0000E944816B00EF1E0EF1AF108D1F61F5F09
:1031F000ACCF87FFDFCF90911501890FDBCF90E037
:1032000001966091150170E00E943029AECF0F93B6
:103210001F93CF93DF93809113019091140123E0CA
:10322000829FF0011124EF58FC4F891740F1C0E054
:10323000D3E060911501C61740F10E94CA16209193
:103240000F018091BA02820F8093BA02909110010F
:10325000920F90931001191654F4082E000C990B3C
:10326000409115014150550B841795071CF021958D
:1032700020930F01DF91CF911F910F91089511823B
:10328000108212828F5F3396D0CF0C2F10E070E047
:10329000C8010E94302920911301820F482F50E06D
:1032A0002091BA02022E000C330B02171307BCF058
:1032B00020911001022E000C330B201731077CF0F7
:1032C0008D9F900111242F583C4F40916F036091C6
:1032D0006E0380916D030E944816CF5FAACFFA015A
:1032E000EE0FFF1FE40FF51FEF58FC4F1182108205
:1032F0001282F3CFB0E0A0E0E0E8F9E10C94A3295A
:10330000EC014C81042F10E09801D8010E9474292F
:103310009B01AC010E948A294B015C01E0E2F0E0D4
:10332000E01BF10BA5E5B0E0AC019B010E948A29EE
:103330006B017C019F01DF010E946C299B01AC01A4
:103340000E9495299B01AC01280D391D4A1D5B1D6A
:10335000C701B6010E944429F22E822F90E039E283
:103360003F1520F143E0249F9001112435952795C6
:10337000122F109500E085E5E82EEF1880911501D9
:10338000081718F10E94CA169C8181E0992319F050
:10339000903219F48FEF80930E0180910E01890F06
:1033A0008C83CDB7DEB7ECE00C94BF2925E530E087
:1033B000B901681B790B9B01220F331F260F371FA2
:1033C00037FFD4CF2F5F3F4FD1CF8E2D01FD8F2DF3
:1033D00020911301622F600F7727771F9B01220F27
:1033E000331F260F371F2F583C4F412F60916E031C
:1033F0000E9448160F5FC2CF0F931F93CF93DF93A6
:10340000EC0110E000E0909115019017110609F011
:103410006CF40E94CA168C8190E001968170992705
:103420008C83DF91CF911F910F910895209113010B
:10343000A801420F511D9A01220F331F240F351F7F
:103440002F583C4F4C8160916E0380916D0396958F
:103450009017110651F04CF0442349F040916F034E
:103460000E9448160F5F1F4FCECF4423B9F340E0B0
:10347000F7CFB0E0A0E0EFE3FAE10C949F29FC0164
:103480006280448081E08483E1E9F3E07490E0E1CC
:10349000F4E0E491812C75E0972EF2E0CF2EDD244C
:1034A000D394AA24AA94B12C55245A94E7190E2F28
:1034B00010E080911501881638F00E94CA16CDB729
:1034C000DEB7E0E10C94BB29E82CF12C82E08615F4
:1034D00068F09E9CF0019F9CF00D1124E454FD4F78
:1034E00080916D03808380916E038183411023C09E
:1034F0009E9CF0019F9CF00D1124E454FD4F13821B
:10350000128220911301C701820F911D9C01220F8D
:10351000331F280F391F2F583C4F9E9CF0019F9C52
:10352000F00D1124E454FD4F4281618180810E949D
:1035300048168394BECF9E9CE0019F9CD00D112421
:10354000C454DD4F8B818823E9F081508B83859DA6
:10355000C00111246C8170E00E941C29FB01FF272F
:10356000EF56FC4F8491E82FE719E59DC001112427
:10357000B8010E941C2980916F03689FB00111243B
:103580007A83BFCF0E94202A20916F03269521586D
:103590002C9DA0012D9D500D1124452F55278417DA
:1035A00095070CF0AECF82E0861588F40E94202AA1
:1035B000B5010E94302988830E94202A20916E0341
:1035C0002695622F70E00E943029280F29839E9C47
:1035D000F0019F9CF00D1124E454FD4F1282809164
:1035E0006F03893C58F088EC9E9CF0019F9CF00D85
:1035F0001124E454FD4F8483838383CF8431A0F767
:1036000084E1F2CFECE6F3E080818E7F80836081FD
:103610007181828193810E946A16109220032FEF9C
:1036200080E792E0215080409040E1F700C0000028
:103630000E94CA160895ECE6F3E080818E7F8083B5
:10364000109220032FEF80E792E0215080409040BD
:10365000E1F700C000000E94CA16089510922003EE
:1036600080911D0381110AC081E080931D03809128
:103670006C03817080931C030E941B1B0895609152
:103680006C03669570E04BE050E086E191E00E94AB
:10369000302A892B19F481E0809320030E94B821FD
:1036A0009093170380931603089590916C0390FFF5
:1036B0002BC09170811129C0926090936C03662396
:1036C00051F060916C0370916D0380916E03909145
:1036D0006F030E946A1660916C03669570E04BE080
:1036E00050E086E191E00E94302A892BA9F01092E7
:1036F000200381E08093190340916F0360916E0372
:1037000080916D030E94561808958B3210F09465D5
:10371000D4CF880F982BD1CF0E943F1BEACF682FC0
:1037200090916C03969581E0890F8B3208F081E0CF
:103730000E94551B089581E00E948F1B0895682FF9
:1037400090916C0396958FEF890F09F48AE20E949D
:10375000551B089581E00E949F1B089561E00E941F
:10376000551B0895ECE6F3E08081816080838695A7
:103770000E94AE1B089580916C0380FF03C00E94DD
:10378000021B08950E94B21B089560E00E94551B21
:10379000089580911E0381112EC00E940B0E81118D
:1037A00004C00E94B80E0E947D160E9465166093A8
:1037B0006C0370936D0380936E0390936F036E7F21
:1037C00061F40E947D160E94651660936C037093ED
:1037D0006D0380936E0390936F030E9456161092B0
:1037E000200380916C0380FF03C086950E94C51B57
:1037F00081E080931E030895ECE6F3E08081816010
:10380000808386950E94C51B089510921D038091A8
:103810001C0381110E94FC1B0E943F1B08950F9303
:103820001F93CF93DF93809120038823B9F1809178
:103830001F03E0916C03E695E81BE09318038230C8
:1038400091F5F0E0E357FC4FE491CE2FD0E00EE18C
:1038500017E180911903882361F0109219030E94E7
:10386000B821909317038093160310921B031092B4
:103870001A030E94B821E0911603F09117038E1BE2
:103880009F0B8F3F9F4750F4EC0FFD1FF0931703E2
:10389000E093160386E193E0F8010995DF91CF915B
:1038A0001F910F910895863049F4F0E0E657FC4FE0
:1038B000E491CE2FD0E002E317E1CBCF893051F471
:1038C000E695F0E0E957FC4FE491CE2FD0E00AE511
:1038D00018E1BFCF8F3051F4E695F0E0EC57FC4F84
:1038E000E491CE2FD0E007E918E1B3CF853149F458
:1038F000F0E0EF57FC4FE491CE2FD0E007E019E164
:10390000A8CFC8E2D0E00AE719E1883109F4A1CFD5
:10391000833239F4EFE7F3E0C591D49102E417E183
:1039200098CFC4EFD1E00CEF19E1843209F491CFC4
:10393000C0EDD7E004E416E1853209F08ACF8E2F7E
:1039400063E00E940229E92FF0E0E458FC4FE49183
:10395000CE2FD0E009E31AE17CCFFA01811101C03A
:10396000FB0109950895CF93DF93C82FD62F0E94AE
:103970008E168C1748F00E948E168D1728F40E9420
:103980009B1BDF91CF9108958C2F0E94AE1BF9CF26
:103990001F93CF93DF93EC01FB01128111111BC028
:1039A0000E941D0D8272CD3CFCE5DF0709F4A0C02A
:1039B00008F045C0C73CECE5DE0709F485C0F8F423
:1039C000C43C9CE5D90709F475C050F4C33CDC4500
:1039D00009F46DC011E0812FDF91CF911F910895FF
:1039E000C53C9CE5D90709F46AC04EE058E16FEF89
:1039F00077E1C63CDC4571F70E94AD1CECCFCA3CB8
:103A0000FCE5DF0709F46AC068F4C83CECE5DE07B2
:103A100009F45FC04FE158E160E378E1C93CDC455F
:103A200059F3D8CFCB3C9CE5D90709F45CC042ECF4
:103A300056E16AEA76E1CC3CDC45F1F2CBCFC23DFF
:103A4000FCE5DF0709F463C098F4CF3C9CE5D90797
:103A500009F457C008F451C0C03DFCE5DF0709F484
:103A600053C0C13DDC4509F0B5CF6EE089E01CC014
:103A7000C53D9CE5D90709F450C058F4C33DFCE5A9
:103A8000DF0709F447C0C43DDC4509F0A3CF88E156
:103A900035C0C63D9CE5D90709F442C06AE285E21B
:103AA000CE35DD4509F096CF0E94B31C94CF0E941D
:103AB000BB1B91CF4AEA5BE16BE97BE19DCF4BE910
:103AC0005BE16AEA7BE198CF4FEF57E16EE078E186
:103AD00093CF40E358E16FE178E18ECF42E558E1C2
:103AE00061E478E189CF41E458E162E578E184CF8F
:103AF0004AEA56E162EC76E17FCF81E00E94AE1B9C
:103B00006ACF65E082E0D0CF68E086E0CDCF64E1A7
:103B10008FE0CACF67E185E1C7CF62E289E1C4CF18
:103B200083E2ECCF809A41B34E7F51B35160EFB73F
:103B3000F8949B01220F331F260F371F280F391FC0
:103B40002817390741F4EFBF8FE594E00197F1F7AB
:103B500000C000000895DC016D91CD0178E051BBFB
:103B6000000000C067FF41BB660F000000C000C03E
:103B700000C041BB00C07A9591F7E2CFCF93DF93AD
:103B8000EC01FB018281882309F433C1C430FDE5D7
:103B9000DF07C0F5CB3F9CE5D90730F49E012250EA
:103BA0003C4524313105B0F50E94200E909353031B
:103BB00080935203C1318CE5D80709F4EEC008F0B8
:103BC00069C0C930ECE5DE0709F4D5C0C8F5C530D9
:103BD0008CE5D80709F4C7C000F5C330ECE5DE0773
:103BE00009F4B9C008F0BBC0C230DC4509F4ADC06F
:103BF00080915203909153030E942E0E0E941D0843
:103C000080E008C0C236EDE5DE0771F2C63AFDE598
:103C1000DF0751F2DF91CF910895809152038062C6
:103C2000C7309CE5D90709F493C0809152038061A5
:103C3000C830DC4508F48CC080915203806488C091
:103C4000809152038B7FCD30FCE5DF0709F480C003
:103C500098F4809152038E7FCB309CE5D90709F40C
:103C600077C0809152038C60CC30DC4508F470C082
:103C7000809152038D7F6CC0809152038F7ECF3034
:103C8000FCE5DF0709F464C008F47BC080915203AF
:103C90008F7D5EC0CE3F9CE5D90709F47AC050F510
:103CA000C531FCE5DF0709F486C098F48091520322
:103CB000837FC3319CE5D90709F44AC008F471C079
:103CC0000E941D0890915203892F97FB87F9805815
:103CD0003FC0CC3FFCE5DF0709F449C008F055C000
:103CE000809153038160CB3FDC4509F081CF809305
:103CF00053037ECFC230EDE5DE0709F468C0A8F4B7
:103D0000C1158DE5D80709F452C080915303836033
:103D1000C130DD4560F380915303982F90959170E9
:103D20008E7F892B90FB81F9E2CFC236EDE5DE076D
:103D300009F451C0C63AFDE5DF0709F453C0C330AA
:103D4000DD4509F055CF80E043C08091520381608A
:103D5000809352034DCF809152038260F9CF8091BE
:103D600052038460F5CF809152038860F1CF809137
:103D700053038260BCCF0E941D088091520380686B
:103D8000E7CF80915203877FE3CF809153038E7FEB
:103D9000AECF809153038D7FAACF809152038F7B4A
:103DA000D7CF0E941D08809152038F77D1CF809189
:103DB00053038C7F9CCF8091520382FB992790F90B
:103DC00021E0922790FB82F990FB83F9C1CF81E03B
:103DD0000E94BB0E0DCF90915203892F8F7E94FFCE
:103DE0008061B6CF90915203892F8E7F90FF8160C2
:103DF000AFCF81E00FCFCF93DF93EB0186319C45AE
:103E000011F50E941D0D9A81992399F08A7A91E00B
:103E100009F490E090932103811109C089E20E9486
:103E2000F50C0E945E0D80E0DF91CF91089585E34F
:103E3000F6CF80912103811104C089E20E94FD0C1C
:103E4000F0CF85E3FBCF81E0EFCF0F931F93CF93AC
:103E5000DF93C42FD22FFC0182818823C9F04093C5
:103E600024030E94B821909323038093220380E2CD
:103E70008C0F883040F4C77081E001C0880FCA956C
:103E8000EAF70E94A405DF91CF911F910F91089549
:103E900010912403141332C08091220390912303C4
:103EA0000E94D021883C910548F5C0E2CD0F1D1736
:103EB000B9F080E2810F883040F4177081E001C0D2
:103EC000880F1A95EAF70E94AB05C83048F481E0E4
:103ED0009D2F977001C0880F9A95EAF70E94A4055C
:103EE000802F0E949B05C83070F6D77081E001C01A
:103EF000880FDA95EAF70E94AB05C5CF80E28C0FF8
:103F0000883008F6C77081E001C0880FCA95EAF7CB
:103F1000F2CF0F939C01CB01243F4CE5340759F1BC
:103F2000A8F4293DFCE53F0701F12A3D4CE53407A3
:103F3000D1F1283D3C4591F406E221EE41EE68EDD9
:103F40007CE50E94251F80E00F910895263FFCE547
:103F50003F07E9F0B0F0273F3C45F9F0FC018281D2
:103F6000882339F110922403EFCF07E225EE45EEC6
:103F700069ED7CE5E6CF06E221EE40EE64EF7CE5FC
:103F8000E0CF07E225EE44EE65EF7CE5DACF06E20E
:103F900021EE42EE66EF7CE5D4CF07E225EE46EE59
:103FA00067EF7CE5CECF08E221E045EE6AED7CE5E7
:103FB000C8CF81E0C9CF9093D1018093D0010895FB
:103FC00090932A03809329030895E0912903F091A7
:103FD0002A03309729F00190F081E02D099508958A
:103FE00080E00895E0912903F0912A03309799F039
:103FF00020912D01222359F02091520327FF07C061
:10400000DC012C9111962C93119726E02C930280C1
:10401000F381E02D09950895E0912903F0912A0399
:10402000309739F022E0DC012C930480F581E02DFB
:1040300009950895209127033091280328173907FF
:1040400071F09093280380932703E0912903F09166
:104050002A03309721F00680F781E02D0995089515
:1040600020912503309126032817390771F090938A
:10407000260380932503E0912903F0912A033097CA
:1040800021F00084F185E02D09950895FC01329618
:1040900080912D01882321F0809152039EE187FFBA
:1040A00096E080E0915008F4089521912223D1F305
:1040B0008F5FF8CF662301F120912D012223F1F0CB
:1040C0002091520327FF1AC0462F469546954695E4
:1040D0004E3190F4677021E030E002C0220F331FB0
:1040E0006A95E2F7840F911DFC01828190E02823FC
:1040F000392381E0232B69F480E00895FC01329696
:1041000008962191261721F0E817F907D1F7F4CF87
:1041100081E008959C01FC0132969FEF80E041917F
:10412000461751F09F3F19F4411101C0982F8F5F3E
:104130008630A9F79F3F09F40895290F311D97FD97
:104140003A95F90162830895FC013296089621910F
:10415000261303C0DF0111971C92E817F907B9F77E
:104160000895E62FE695E695E695EE3168F4E80FBA
:10417000F92FF11D677021E030E001C0220F6A9530
:10418000EAF78281822B82830895E62FE695E695F1
:10419000E695EE3170F4E80FF92FF11D677021E01C
:1041A00030E001C0220F6A95EAF72095828128232A
:1041B0002283089520912D01222339F0209152036A
:1041C00027FF03C00E94B12008950E948A2008950D
:1041D00020912D01222339F02091520327FF03C0A3
:1041E0000E94C52008950E94A4200895FC013296E3
:1041F00080912D01882351F08091520387FF06C0E2
:104200008EE1DF011D928A95E9F7089586E0F9CFE6
:1042100046E050E00E943D2A21E0892B09F420E08D
:10422000822F089508950E9412210895811106C0D9
:1042300081E080932B030E941321089582E0F9CF3F
:1042400083E080932B030E94132108950E9416217E
:10425000089581E080932B030E94132108950E940A
:1042600029210895089508950E94332108950895FD
:1042700008950E9432210895CF930E9437210E9411
:1042800099120E943821C0E08C2F0E94CA11892BFC
:1042900031F4CF5FC630C1F780E0CF91089581E05F
:1042A000FCCF85B7806885BF85B7806885BF0895D6
:1042B0001F921FB61F9211248F939F93AF93BF93AA
:1042C00080912C03811113C08091A7039091A803C2
:1042D000A091A903B091AA034196A11DB11D80939D
:1042E000A7039093A803A093A903B093AA03BF9137
:1042F000AF919F918F911F901FBE1F901895809135
:10430000AF03843031F10E94890410922C0388E1BC
:1043100090E020E40FB6F894A895809360000FBE5B
:104320002093600083B7817F846083BF83B78160FF
:1043300083BF7894889583B78E7F83BF0FB6F89438
:10434000A895809160008861809360001092600061
:104350000FBE08950E941D080E949004089582E0F7
:1043600084BD93E095BD9AEF97BD80936E0008954C
:104370002FB7F8948091A7039091A803A091A90367
:10438000B091AA032FBF08952FB7F8946091A703A7
:104390007091A8038091A9039091AA032FBF08955B
:1043A0009C014FB7F8948091A7039091A803A09126
:1043B000A903B091AA034FBF821B930B0895789471
:1043C0001F921FB61F9211248F939F93AF93BF9399
:1043D0008091A7039091A803A091A903B091AA038B
:1043E0000196A11DB11D8093A7039093A803A093EC
:1043F000A903B093AA03BF91AF919F918F911F9092
:104400001FBE1F90189581E08093E00080E28093AA
:10441000D8001092C9008FE19EE40197F1F700C027
:10442000000087E090EBDC018093B8039093B90320
:10443000A093BA03B093BB0388E19CE00FB6F89455
:10444000A895809360000FBE90936000FFCF88E135
:104450009CE00FB6F894A895809360000FBE9093EF
:104460006000FFCF80915003089508959C0182E081
:104470008093E9009FEF8091E800915085FD06C090
:1044800085ED8A95F1F700009111F5CF8091E80054
:1044900085FF0CC050E040E066E070E0C9010E947A
:1044A0007B248091E8008E778093E8000895CF9375
:1044B000DF93EC0180912D018823B1F180915203AB
:1044C00087FF32C060E282E08093E9008FEF909135
:1044D000E800815095FD06C095ED9A95F1F7000032
:1044E0008111F5CF8091E80085FF1BC080912D01DF
:1044F00070E050E040E0811104C050E040E068E02E
:1045000070E0CE010E947B248091E8008E7780933A
:10451000E80080E2FE01A0E3B3E001900D928A95ED
:10452000E1F7DF91CF91089568E081E0CDCF8093EE
:104530002D0370932F0360932E038091AF0384307B
:1045400001F582E08093E9008FEF9091E8008150BF
:1045500095FD06C095ED9A95F1F700008111F5CF14
:104560008091E80085FF0DC050E040E063E070E01E
:104570008DE293E00E947B248091E8008E77809307
:10458000E8000895BC0184E00E9497220895BC01D0
:1045900083E00E94972208958091AE03811109C0A3
:1045A0000E940B260E9468268091E200846080931E
:1045B000E20008951092AE0308950E942921089503
:1045C0006091AB0381E0611101C080E00E94202175
:1045D00008959091AF0381E0943009F080E06091FC
:1045E000AB030E942621089542E061EC81E00E9425
:1045F000872542E261EC82E00E9487259091AF031B
:1046000081E0943009F080E06091AB030E941621B4
:1046100008958091B103833009F461C030F4813092
:10462000D1F1823009F49EC008958A3009F48AC01D
:104630008B3009F46FC0893009F050C08091B0030D
:10464000813209F04BC08091B4039091B503029779
:1046500008F044C08091E800877F8093E800809153
:10466000E80082FF37C09091F3008091F20002973A
:1046700031F48091F100813011F0863021F4809185
:10468000F100809350038091E8008B778093E800DD
:104690000E94BB2523C08091B003813AF9F4809138
:1046A000E800877F8093E8008091B4039091B50380
:1046B000892B61F460E280E393E070E00E94CA24F9
:1046C0008091E8008B778093E800089560E090E0A7
:1046D00080E0F3CF8091AF038111C1CF0895809125
:1046E000B003813AD9F78091B4039091B503892B37
:1046F000A9F78091E800877F8093E8008091E80027
:1047000080FFFCCF80912D018093F1008091E80023
:104710008E77BCCF8091B003813201F78091B403D2
:104720009091B503892BD1F68091E800877F809323
:10473000E8000E94BB258091B20380932D010E9466
:104740001D0808958091B003813241F68091E80000
:10475000877F8093E8000E94BB258091B3038093FC
:10476000510308958091B003813A09F0B7CF809149
:10477000E800877F8093E8008091E80080FFFCCF0D
:1047800080915103C1CF84B7877F84BF0FB6F8945F
:10479000A89580916000886180936000109260000D
:1047A0000FBE80E890E00FB6F8948093610090937C
:1047B00061000FBE0E942F2108950E940B260E94C7
:1047C0006826E2EEF0E080818460808378940E9425
:1047D000E728089581E291E00E94E01F089580910A
:1047E000AF03853031F48091AF03853019F00E941A
:1047F000AA2108950E947F218091AD03882399F317
:104800000E943C21882379F30E9465240E941D08A0
:10481000EACF08950E940D240895292F33272330CD
:10482000310519F168F42130310509F444C0223012
:10483000310509F445C090E080E030E020E025C07B
:104840002132310549F122323105A9F780E490E0A7
:104850002DEC36E061157105C1F086EB90E027E1A3
:1048600036E06130710589F0E6CF992781309105F6
:1048700081F0009729F00297F1F6E6E9F5E002C031
:10488000E6ECF5E0849190E09F01FA01318320830A
:104890000895E4EBF5E0F6CF89E090E02CED35E00B
:1048A0006115710591F389E090E025EF35E0613005
:1048B000710559F3C0CF82E190E025E036E0E5CF05
:1048C0008BE390E02AEC35E0E0CF80E189BD82E126
:1048D00089BD09B400FEFDCF8091D8008F7D809303
:1048E000D8008091E00082608093E0008091E00039
:1048F00081FDFCCF0895AF92BF92CF92DF92FF92DD
:104900000F931F93CF93DF936C01EB018A010E94F9
:10491000DA25F82E811123C00115110539F0F801AF
:1049200080819181C81BD90BC80ED91EB12CA12C36
:104930002097A9F08091E80085FD22C08091E800D1
:104940008E778093E80001151105A1F0F8018081B0
:104950009181A80EB91EB182A08285E0F82E8F2D1C
:10496000DF91CF911F910F91FF90DF90CF90BF907B
:10497000AF9008950E94DA258823D1F2F82EEFCF68
:10498000F60181916F018093F1002197FFEFAF1A3B
:10499000BF0ACECFFC018091B6039091B703861772
:1049A0009707A0F06115710529F49091E8009E77B2
:1049B0009093E80090E06115710551F4911108C0E1
:1049C0008091E80082FF34C080E00895BC01F2CFFE
:1049D0008091AF038823C1F18530C1F18091E80057
:1049E00083FD30C08091E80082FDEACF8091E8002D
:1049F00080FFE1CF8091F3002091F200382F611504
:104A0000710519F02830310558F091E02830310552
:104A100009F090E02091E8002E772093E800CBCFBA
:104A200081918093F100615071092F5F3F4FE7CF73
:104A30008091AF03882341F0853041F08091E800F8
:104A400083FFBECF81E0089582E0089583E008955A
:104A5000FC018091B6039091B70386179707A0F0E9
:104A60006115710529F48091E8008E778093E80044
:104A700090E06115710551F4911108C08091E80032
:104A800082FF35C080E00895BC01F2CF8091AF0372
:104A90008823C9F18530C9F18091E80083FD31C0D8
:104AA0008091E80082FDEACF8091E80080FFE1CFAD
:104AB0008091F3002091F200382F6115710519F0F3
:104AC0002830310558F091E02830310509F090E0A8
:104AD0008091E8008E778093E800CBCF849180931B
:104AE000F1003196615071092F5F3F4FE6CF809101
:104AF000AF03882341F0853041F08091E80083FFC7
:104B0000BDCF81E0089582E0089583E00895982F55
:104B1000973028F08F708093E90081E0089590939A
:104B2000E900242F762F50E0981731F07091EC00B7
:104B30002091ED005091F00021FD02C09F5FE8CF71
:104B40003091EB003E7F3093EB003091ED003D7FE4
:104B50003093ED003091EB0031603093EB007093B7
:104B6000EC002093ED005093F0002091EE0027FD23
:104B7000E5CF80E008958091B00387FF13C0809156
:104B8000E80082FF06C08091E8008B778093E80000
:104B900004C08091AF038111F2CF08958091AF03DB
:104BA0008823D9F38091E80080FFF8CF8091E80056
:104BB0008E77ECCF2091E4003091E50095E6A901D5
:104BC0002091EC00822F817020FF06C08091E800C8
:104BD00080FF06C080E008952091E80022FD1AC001
:104BE0008091AF03882389F0853089F08091EB00B4
:104BF00085FD0FC02091E4003091E5004217530776
:104C0000F9F29150E1F684E0089582E0089583E09E
:104C1000089581E008950E947A260E948226E0EE9F
:104C2000F0E0808181608083E8EDF0E080818F7723
:104C3000808319BCA7EDB0E08C918E7F8C9380812E
:104C40008F7E80831092AE0308950F931F93CF93AE
:104C5000DF930E947A260E948226C8EDD0E08881E8
:104C60008F77888388818068888388818F7D888317
:104C700019BC1092AF031092AB031092AD031092C7
:104C8000AC0300EE10E0F80180818B7F8083888187
:104C90008160888342E060E080E00E948725E1EE49
:104CA000F0E080818E7F8083E2EEF0E080818160A1
:104CB0008083808188608083F80180818E7F8083FB
:104CC000888180618883DF91CF911F910F91089532
:104CD000E8EDF0E080818F7E8083E7EDF0E0808179
:104CE0008160808384E082BF81E08093AE030E9474
:104CF00025260895E8EDF0E080818E7F8083109274
:104D0000E20008951092DA001092E10008951F92D7
:104D10000F920FB60F9211242F933F934F935F93EF
:104D20006F937F938F939F93AF93BF93EF93FF9373
:104D30008091E10082FF0BC08091E20082FF07C0FA
:104D40008091E1008B7F8093E1000E94E6288091B2
:104D5000DA0080FF19C08091D80080FF15C08091D3
:104D6000DA008E7F8093DA008091D90080FF96C0B0
:104D700080E189BD82E189BD09B400FEFDCF81E0FB
:104D80008093AF030E94CC228091E10080FF19C084
:104D90008091E20080FF15C08091E2008E7F8093B9
:104DA000E2008091E20080618093E2008091D8006F
:104DB00080628093D80019BC85E08093AF030E9485
:104DC000E0228091E10084FF2BC08091E20084FF0B
:104DD00027C080E189BD82E189BD89B5982F917096
:104DE00080FFFBCF8091D8008F7D8093D800809189
:104DF000E1008F7E8093E1008091E2008F7E8093BE
:104E0000E2008091E20081608093E2008091AB0338
:104E1000882309F449C084E08093AF030E94E9220B
:104E20008091E10083FF29C08091E20083FF25C0CB
:104E30008091E100877F8093E10082E08093AF035F
:104E40001092AB038091E1008E7F8093E10080910E
:104E5000E2008E7F8093E2008091E2008061809387
:104E6000E20042E060E080E00E9487258091F0004F
:104E700088608093F0000E94DD22FF91EF91BF9146
:104E8000AF919F918F917F916F915F914F913F91E2
:104E90002F910F900FBE0F901F90189519BC109274
:104EA000AF030E94DA2270CF8091E30087FD93E088
:104EB0009093AF03B3CF1F920F920FB60F921124AE
:104EC0002F933F934F935F936F937F938F939F9312
:104ED000AF93BF93CF93DF93EF93FF93D091E9000C
:104EE000DF708091EC00C82FC17080FDC0E8109287
:104EF000E9008091F000877F8093F00078940E9411
:104F00009F271092E9008091F00088608093F00064
:104F1000CD2BCF70C093E900FF91EF91DF91CF913E
:104F2000BF91AF919F918F917F916F915F914F91C1
:104F30003F912F910F900FBE0F901F901895AAE2EE
:104F4000B0E0E5EAF7E20C94AC2980EB93E0209125
:104F5000F100FC012193CF01F3E0883B9F07B9F7F3
:104F60000E9409238091E80083FF1EC18091B00355
:104F70009091B1039A3008F017C1E92FF0E0E154A5
:104F8000F54D0C946629803899F0823809F00CC1EF
:104F90008091B4038F70873008F006C18093E900D8
:104FA0008091EB0085FB882780F91092E90006C00C
:104FB0008091AC039091AD03911182609091E800D3
:104FC000977F9093E8008093F1001092F100809118
:104FD000E8008E77E5C0882309F4D3C0823009F059
:104FE000E3C08091B2038111D6C08091B4038F7069
:104FF0002FEF280F263008F0D7C08093E9002091CA
:10500000EB0020FFC8C0933031F48091EB00806248
:105010008093EB00C0C09091EB0090619093EB0007
:1050200021E030E001C0220F8A95EAF72093EA00E0
:105030001092EA008091EB008860EACF8111B4C041
:105040001091B2031F778091E3008078812B8093C9
:10505000E3008091E800877F8093E8000E94BB25F1
:105060008091E80080FFFCCF8091E300806880930E
:10507000E30082E0111183E08093AF0395C0805874
:10508000823008F091C08091B2039091B3038C3DBF
:1050900023E09207A1F583E08A838AE289834FB7F0
:1050A000F894DE01139620E03EE051E2E32FF0E0B9
:1050B00050935700E49120FF03C0E295EF703F5FEB
:1050C000EF708E2F90E0EA30C0F0C7968D939D93DD
:1050D0002F5F243159F74FBF8091E800877F80937D
:1050E000E8006AE270E0CE0101960E94CA24809135
:1050F000E8008B778093E80057C0C096E7CF6091B7
:10510000B4037091B503AE014F5F5F4F0E940A2454
:10511000BC01892B09F448C09091E800977F9093D7
:10512000E80089819A810E942825E1CF8038E1F545
:105130008091E800877F8093E8008091AB038093A3
:10514000F10045CF811130C09091B203923060F5EB
:105150008091E800877F8093E8009093AB030E94E2
:10516000BB258091AB03882311F084E005C08091BA
:10517000E30087FDFACF81E08093AF030E94F42221
:1051800013C08091B203813079F481E0933009F04B
:1051900080E08093AD031092E9008091E800877F62
:1051A0008093E8000E94BB258091E80083FF0AC03D
:1051B0008091E800877F8093E8008091EB00806217
:1051C0008093EB00AA96E3E00C94C8290895CF934E
:1051D0008091AF038823A1F0C091E900CF70909136
:1051E000EC00892F817090FD80E8C82B1092E900B7
:1051F0008091E80083FD0E949F27CF70C093E90053
:10520000CF910895991B79E004C0991F961708F073
:10521000961B881F7A95C9F78095089587FB082EFD
:10522000062687FD819567FD61950E9402290EF48F
:10523000919507FC81950895AA1BBB1B51E107C0FE
:10524000AA1FBB1FA617B70710F0A61BB70B881F16
:10525000991F5A95A9F780959095BC01CD010895A5
:1052600097FB072E16F4009407D077FD09D00E9413
:105270001C2907FC05D03EF4909581959F4F089519
:10528000709561957F4F0895A1E21A2EAA1BBB1B52
:10529000FD010DC0AA1FBB1FEE1FFF1FA217B30702
:1052A000E407F50720F0A21BB30BE40BF50B661F18
:1052B000771F881F991F1A9469F7609570958095DC
:1052C00090959B01AC01BD01CF010895EE0FFF1F2A
:1052D0000590F491E02D09940E947429332312F46F
:1052E0008A1B9B0B0C948529A29FB001B39FC00120
:1052F000A39F700D811D1124911DB29F700D811D02
:105300001124911D08950E947429B7FF0895821BEE
:10531000930B08950E947429A59F900DB49F900D42
:10532000A49F800D911D11240895B7FF0C948A2924
:105330000E948A29821B930B08952F923F924F92CD
:105340005F926F927F928F929F92AF92BF92CF9215
:10535000DF92EF92FF920F931F93CF93DF93CDB71E
:10536000DEB7CA1BDB0B0FB6F894DEBF0FBECDBF96
:1053700009942A88398848885F846E847D848C8467
:105380009B84AA84B984C884DF80EE80FD800C8170
:105390001B81AA81B981CE0FD11D0FB6F894DEBF53
:1053A0000FBECDBFED0108958F929F92AF92BF9235
:1053B000CF92DF92EF92FF92CF93DF93EC0168815F
:1053C00079818A819B81611571058105910521F49F
:1053D00064E279ED8BE597E02DE133EF41E050E0B9
:1053E0000E94922A49015A019B01AC01A7EAB1E44B
:1053F0000E948A296B017C01ACEEB4EFA5019401F7
:105400000E949829DC01CB018C0D9D1DAE1DBF1D96
:10541000B7FF03C00197A109B04888839983AA8385
:10542000BB839F77DF91CF91FF90EF90DF90CF907C
:10543000BF90AF909F908F9008950E94D4290895B7
:1054400080E091E00E94D4290895B0E0A0E080932C
:10545000000190930101A0930201B093030108950C
:10546000FC014150504030F001900616D1F73197C1
:10547000CF010895882799270895FB01DC0104C016
:105480008D910190801921F441505040C8F7881B3C
:10549000990B0895F999FECF92BD81BDF89A99278D
:1054A00080B50895A6E1B0E044E050E00C94842A71
:1054B000A8E1B0E042E050E00C94842A262FF9994C
:1054C000FECF92BD81BDF89A019700B4021639F063
:1054D0001FBA20BD0FB6F894FA9AF99A0FBE089534
:1054E0000396272F0E945F2A0E945E2A252F0E9482
:1054F0005F2A242F0C945F2A0196272F0E945F2A8F
:105500000C945E2ADC01CB01FC01F999FECF06C0A8
:10551000F2BDE1BDF89A319600B40D924150504071
:10552000B8F70895052E97FB1EF400940E94A92A4F
:1055300057FD07D00E94442907FC03D04EF40C9479
:10554000A92A50954095309521953F4F4F4F5F4F79
:10555000089590958095709561957F4F8F4F9F4FDF
:105560000895F894FFCFED05ED051E061E06AB0667
:10557000C7064D064D06D2065E076D076D07C327A9
:10558000EB27D428EB27D4281E283F28D428962898
:02559000A2284F
:10559200010000007202280850011E0A14010101D4
:1055A20002001200121201191A1B1C1D1E1F2021BB
:1055B20022322257223622C722C222352201E2009B
:1055C200E900EA00B500B600B700CD008301CC00C7
:1055D2008A01920194012102230224022502260259
:1055E20027022A02B300B4006F007000818283E2B6
:1055F20000E900EA00B500B600B700CD008301CC97
:10560200008A01920194012102230224022502262A
:105612000227022A02B300B4006F00700081828365
:10562200F7F6F5F4F190919293959496973435C6E6
:10563200303132333600010202020206060609093F
:10564200090909090F0F0F0F0F0F15151518191951
:10565200191919191919191923242525252525255B
:00000001FF
